:100000000C9454000C9473000C9473000C947300C3
:100010000C9473000C9473000C9473000C94730094
:100020000C9473000C9473000C9473000C94730084
:100030000C9473000C94EC000C9473000C947300FB
:100040000C9473000C9473000C9473000C94730064
:100050000C9473000C9473000C9473000C94730054
:100060000C9473000C9473000C9473000C94730044
:100070000C9473000C9473000C9473000C94730034
:100080000C9473000C9473000C94730096019D0102
:10009000B301BA01000240027602FD02B502B802C5
:1000A000BC02CE02E002F20211241FBECFEFD0E468
:1000B000DEBFCDBF11E0A0E0B1E0EEE9F6E000E088
:1000C0000BBF02C007900D92A231B107D9F721E012
:1000D000A2E1B1E001C01D92AD31B207E1F70E948B
:1000E00008030C944D030C940000CF93DF9300D0D1
:1000F0001F92CDB7DEB789837B836A8389818A307B
:1001000031F48A819B81BC018DE00E94750080ECF6
:1001100090E0FC018081882F90E080729927892BE4
:10012000B1F386EC90E02981FC01208380E090E02F
:100130000F900F900F90DF91CF910895CF93DF93A1
:10014000CDB7DEB781E890E02BE0FC01208388E8A2
:1001500090E02DE730E0FC01318320838FE690E0D2
:1001600022E0FC01208384E890E0FC0111821082EF
:1001700080910E0190910F01A0911001B091110199
:100180008093130190931401A0931501B09316016D
:100190008FE590E02FE530E0F90120812068FC0137
:1001A00020830000DF91CF910895CF93DF93CDB7E7
:1001B000DEB781E890E0FC0110820000DF91CF9172
:1001C0000895CF93DF93CDB7DEB781E0809312011E
:1001D0000000DF91CF9108951F920F9200905F0071
:1001E0000F92112400905B000F922F933F934F9337
:1001F0005F936F937F938F939F93AF93BF93EF938F
:10020000FF93CF93DF93CDB7DEB780911301909129
:100210001401A0911501B09116010197A109B1092E
:100220008093130190931401A0931501B0931601CC
:100230008091130190911401A0911501B0911601C4
:10024000892B8A2B8B2B91F40E94E10080910E0167
:1002500090910F01A0911001B091110180931301B1
:1002600090931401A0931501B09316010000DF9143
:10027000CF91FF91EF91BF91AF919F918F917F911E
:100280006F915F914F913F912F910F9000925B0082
:100290000F9000925F000F901F901895CF93DF93FF
:1002A00000D000D0CDB7DEB769837A838B839C837F
:1002B00089819A81AB81BC8180930E0190930F015B
:1002C000A0931001B093110180910E0190910F0144
:1002D000A0911001B091110180931301909314012A
:1002E000A0931501B093160100000F900F900F908E
:1002F0000F90DF91CF910895CF93DF93CDB7DEB705
:1003000080911B0190911C01CC01A0E0B0E040E085
:1003100050E026E030E0841B950B2817390708F4DD
:1003200008C18A5B9F4FFC010C94440381E090E07C
:1003300090931C0180931B0102C180911701882FAB
:1003400090E081709927892B39F481E090E09093B7
:100350001C0180931B01F3C082E090E090931C018C
:1003600080931B01ECC083E090E090931C0180938C
:100370001B01E5C080911701882F90E081709927BB
:10038000892B39F481E090E090931C0180931B014C
:10039000D6C080911901853058F480911A018430BB
:1003A00038F484E090E090931C0180931B0127C0F7
:1003B00080911901853068F080911A01843048F4E9
:1003C00085E090E090931C0180931B01109219012D
:1003D00016C080911A01843058F080911A01882F3C
:1003E00090E090931C0180931B0110921901A7C00B
:1003F00083E090E090931C0180931B01A0C09FC0FC
:1004000080911701882F90E081709927892B39F40A
:1004100081E090E090931C0180931B018FC080913C
:100420001901853058F480911A01843038F483E042
:1004300090E090931C0180931B0121C080911901D1
:10044000853068F080911A01843048F485E090E0AE
:1004500090931C0180931B011092190110C0809190
:100460001A01843008F46AC080911A01882F90E044
:1004700090931C0180931B01109219015FC05EC014
:1004800080911701882F90E081709927892B39F48A
:1004900081E090E090931C0180931B0150C08091FB
:1004A0001901833038F485E090E090931C0180932B
:1004B0001B0145C080911901833068F080911A01B9
:1004C000843048F483E090E090931C0180931B01FA
:1004D0001092190134C080911A01882F90E09093F6
:1004E0001C0180931B011092190129C080911701F2
:1004F000882F90E081709927892B39F481E090E072
:1005000090931C0180931B011AC0809119018530C2
:1005100038F486E090E090931C0180931B010FC09B
:1005200083E090E090931C0180931B0110921901CD
:1005300006C010921C0110921B0101C000008091A6
:100540001B0190911C01CC01A0E0B0E040E050E024
:1005500026E030E0841B950B2817390708F44BC0C0
:10056000835B9F4FFC010C944403109218014CC014
:1005700081E08093180148C0809119018F5F8093BA
:10058000190183E080931801809117018330B9F538
:1005900080911A018F5F80931A0131C080911901F7
:1005A0008F5F8093190187E0809318018091170174
:1005B000833039F580911A018F5F80931A0121C031
:1005C00081E080931801809119018F5F8093190158
:1005D000809117018330B9F480911A018F5F809365
:1005E0001A0111C0809119018F5F8093190181E078
:1005F0008093180109C0000007C0000005C000007A
:1006000003C0000001C000000000DF91CF910895F9
:10061000CF93DF93CDB7DEB781E290E0FC0110828B
:1006200082E290E02FEFFC01208384E290E02FEF44
:10063000FC01208385E290E0FC01108280E290E0E2
:10064000FC018081809583708093170110921801BE
:100650001092190110921A0164EF71E080E090E0AD
:100660000E944E010E949E000E947C010000809129
:1006700012018823E1F31092120185E290E02091AB
:100680001801FC012083F0CFEE0FFF1F0024001C97
:0E0690000BBE0790F691E02D0994F894FFCF71
:10069E0000000002000000007500000000000100D4
:0206AE0000004A
:00000001FF
